{
  "_format": "hh-sol-artifact-1",
  "contractName": "CalculateArea",
  "sourceName": "contracts/CalculateArea.sol",
  "abi": [
    {
      "inputs": [
        {
          "internalType": "uint256",
          "name": "length",
          "type": "uint256"
        },
        {
          "internalType": "uint256",
          "name": "breadth",
          "type": "uint256"
        }
      ],
      "name": "areaRectangle",
      "outputs": [
        {
          "internalType": "uint256",
          "name": "",
          "type": "uint256"
        }
      ],
      "stateMutability": "pure",
      "type": "function"
    },
    {
      "inputs": [
        {
          "internalType": "uint256",
          "name": "length",
          "type": "uint256"
        }
      ],
      "name": "areaSquare",
      "outputs": [
        {
          "internalType": "uint256",
          "name": "",
          "type": "uint256"
        }
      ],
      "stateMutability": "pure",
      "type": "function"
    },
    {
      "inputs": [
        {
          "internalType": "uint256",
          "name": "length",
          "type": "uint256"
        },
        {
          "internalType": "uint256",
          "name": "base",
          "type": "uint256"
        }
      ],
      "name": "areaTriangle",
      "outputs": [
        {
          "internalType": "uint256",
          "name": "",
          "type": "uint256"
        }
      ],
      "stateMutability": "pure",
      "type": "function"
    }
  ],
  "bytecode": "0x608060405234801561001057600080fd5b50610497806100206000396000f3fe608060405234801561001057600080fd5b50600436106100415760003560e01c80631d3869d0146100465780634b4b932c14610076578063fd81dda8146100a6575b600080fd5b610060600480360381019061005b919061016e565b6100d6565b60405161006d91906101bd565b60405180910390f35b610090600480360381019061008b91906101d8565b6100f1565b60405161009d91906101bd565b60405180910390f35b6100c060048036038101906100bb919061016e565b61010c565b6040516100cd91906101bd565b60405180910390f35b60008082846100e59190610234565b90508091505092915050565b60008060028361010191906103b6565b905080915050919050565b6000806002838561011d9190610234565b6101279190610430565b90508091505092915050565b600080fd5b6000819050919050565b61014b81610138565b811461015657600080fd5b50565b60008135905061016881610142565b92915050565b6000806040838503121561018557610184610133565b5b600061019385828601610159565b92505060206101a485828601610159565b9150509250929050565b6101b781610138565b82525050565b60006020820190506101d260008301846101ae565b92915050565b6000602082840312156101ee576101ed610133565b5b60006101fc84828501610159565b91505092915050565b7f4e487b7100000000000000000000000000000000000000000000000000000000600052601160045260246000fd5b600061023f82610138565b915061024a83610138565b925082820261025881610138565b9150828204841483151761026f5761026e610205565b5b5092915050565b60008160011c9050919050565b6000808291508390505b60018511156102cd578086048111156102a9576102a8610205565b5b60018516156102b85780820291505b80810290506102c685610276565b945061028d565b94509492505050565b6000826102e657600190506103a2565b816102f457600090506103a2565b816001811461030a576002811461031457610343565b60019150506103a2565b60ff84111561032657610325610205565b5b8360020a91508482111561033d5761033c610205565b5b506103a2565b5060208310610133831016604e8410600b84101617156103785782820a90508381111561037357610372610205565b5b6103a2565b6103858484846001610283565b9250905081840481111561039c5761039b610205565b5b81810290505b9392505050565b600060ff82169050919050565b60006103c182610138565b91506103cc836103a9565b92506103f97fffffffffffffffffffffffffffffffffffffffffffffffffffffffffffffffff84846102d6565b905092915050565b7f4e487b7100000000000000000000000000000000000000000000000000000000600052601260045260246000fd5b600061043b82610138565b915061044683610138565b92508261045657610455610401565b5b82820490509291505056fea26469706673582212204be23d69ecdafb52ceaa4fae5e1038be39a747a74864aa7a1cabeb07bcd8f22264736f6c63430008140033",
  "linkReferences": {},
  "deployedLinkReferences": {}
}