{
  "contracts/CalculateArea.sol": {
    "CalculateArea": {
      "abi": [
        {
          "inputs": [
            {
              "internalType": "uint256",
              "name": "length",
              "type": "uint256"
            },
            {
              "internalType": "uint256",
              "name": "breadth",
              "type": "uint256"
            }
          ],
          "name": "areaRectangle",
          "outputs": [
            {
              "internalType": "uint256",
              "name": "",
              "type": "uint256"
            }
          ],
          "stateMutability": "pure",
          "type": "function"
        },
        {
          "inputs": [
            {
              "internalType": "uint256",
              "name": "length",
              "type": "uint256"
            }
          ],
          "name": "areaSquare",
          "outputs": [
            {
              "internalType": "uint256",
              "name": "",
              "type": "uint256"
            }
          ],
          "stateMutability": "pure",
          "type": "function"
        },
        {
          "inputs": [
            {
              "internalType": "uint256",
              "name": "length",
              "type": "uint256"
            },
            {
              "internalType": "uint256",
              "name": "breadth",
              "type": "uint256"
            }
          ],
          "name": "areaTriangle",
          "outputs": [
            {
              "internalType": "uint256",
              "name": "",
              "type": "uint256"
            }
          ],
          "stateMutability": "pure",
          "type": "function"
        }
      ],
      "evm": {
        "bytecode": {
          "linkReferences": {},
          "object": "608060405234801561001057600080fd5b50610497806100206000396000f3fe608060405234801561001057600080fd5b50600436106100415760003560e01c80631d3869d0146100465780634b4b932c14610076578063fd81dda8146100a6575b600080fd5b610060600480360381019061005b919061016e565b6100d6565b60405161006d91906101bd565b60405180910390f35b610090600480360381019061008b91906101d8565b6100f1565b60405161009d91906101bd565b60405180910390f35b6100c060048036038101906100bb919061016e565b61010c565b6040516100cd91906101bd565b60405180910390f35b60008082846100e59190610234565b90508091505092915050565b60008060028361010191906103b6565b905080915050919050565b6000806002838561011d9190610234565b6101279190610430565b90508091505092915050565b600080fd5b6000819050919050565b61014b81610138565b811461015657600080fd5b50565b60008135905061016881610142565b92915050565b6000806040838503121561018557610184610133565b5b600061019385828601610159565b92505060206101a485828601610159565b9150509250929050565b6101b781610138565b82525050565b60006020820190506101d260008301846101ae565b92915050565b6000602082840312156101ee576101ed610133565b5b60006101fc84828501610159565b91505092915050565b7f4e487b7100000000000000000000000000000000000000000000000000000000600052601160045260246000fd5b600061023f82610138565b915061024a83610138565b925082820261025881610138565b9150828204841483151761026f5761026e610205565b5b5092915050565b60008160011c9050919050565b6000808291508390505b60018511156102cd578086048111156102a9576102a8610205565b5b60018516156102b85780820291505b80810290506102c685610276565b945061028d565b94509492505050565b6000826102e657600190506103a2565b816102f457600090506103a2565b816001811461030a576002811461031457610343565b60019150506103a2565b60ff84111561032657610325610205565b5b8360020a91508482111561033d5761033c610205565b5b506103a2565b5060208310610133831016604e8410600b84101617156103785782820a90508381111561037357610372610205565b5b6103a2565b6103858484846001610283565b9250905081840481111561039c5761039b610205565b5b81810290505b9392505050565b600060ff82169050919050565b60006103c182610138565b91506103cc836103a9565b92506103f97fffffffffffffffffffffffffffffffffffffffffffffffffffffffffffffffff84846102d6565b905092915050565b7f4e487b7100000000000000000000000000000000000000000000000000000000600052601260045260246000fd5b600061043b82610138565b915061044683610138565b92508261045657610455610401565b5b82820490509291505056fea2646970667358221220fb27fb48f1094c91a6030fa749a32a0b7c0525c6ea232e1c231bf13b0955aad664736f6c63430008140033",
          "opcodes": "PUSH1 0x80 PUSH1 0x40 MSTORE CALLVALUE DUP1 ISZERO PUSH2 0x10 JUMPI PUSH1 0x0 DUP1 REVERT JUMPDEST POP PUSH2 0x497 DUP1 PUSH2 0x20 PUSH1 0x0 CODECOPY PUSH1 0x0 RETURN INVALID PUSH1 0x80 PUSH1 0x40 MSTORE CALLVALUE DUP1 ISZERO PUSH2 0x10 JUMPI PUSH1 0x0 DUP1 REVERT JUMPDEST POP PUSH1 0x4 CALLDATASIZE LT PUSH2 0x41 JUMPI PUSH1 0x0 CALLDATALOAD PUSH1 0xE0 SHR DUP1 PUSH4 0x1D3869D0 EQ PUSH2 0x46 JUMPI DUP1 PUSH4 0x4B4B932C EQ PUSH2 0x76 JUMPI DUP1 PUSH4 0xFD81DDA8 EQ PUSH2 0xA6 JUMPI JUMPDEST PUSH1 0x0 DUP1 REVERT JUMPDEST PUSH2 0x60 PUSH1 0x4 DUP1 CALLDATASIZE SUB DUP2 ADD SWAP1 PUSH2 0x5B SWAP2 SWAP1 PUSH2 0x16E JUMP JUMPDEST PUSH2 0xD6 JUMP JUMPDEST PUSH1 0x40 MLOAD PUSH2 0x6D SWAP2 SWAP1 PUSH2 0x1BD JUMP JUMPDEST PUSH1 0x40 MLOAD DUP1 SWAP2 SUB SWAP1 RETURN JUMPDEST PUSH2 0x90 PUSH1 0x4 DUP1 CALLDATASIZE SUB DUP2 ADD SWAP1 PUSH2 0x8B SWAP2 SWAP1 PUSH2 0x1D8 JUMP JUMPDEST PUSH2 0xF1 JUMP JUMPDEST PUSH1 0x40 MLOAD PUSH2 0x9D SWAP2 SWAP1 PUSH2 0x1BD JUMP JUMPDEST PUSH1 0x40 MLOAD DUP1 SWAP2 SUB SWAP1 RETURN JUMPDEST PUSH2 0xC0 PUSH1 0x4 DUP1 CALLDATASIZE SUB DUP2 ADD SWAP1 PUSH2 0xBB SWAP2 SWAP1 PUSH2 0x16E JUMP JUMPDEST PUSH2 0x10C JUMP JUMPDEST PUSH1 0x40 MLOAD PUSH2 0xCD SWAP2 SWAP1 PUSH2 0x1BD JUMP JUMPDEST PUSH1 0x40 MLOAD DUP1 SWAP2 SUB SWAP1 RETURN JUMPDEST PUSH1 0x0 DUP1 DUP3 DUP5 PUSH2 0xE5 SWAP2 SWAP1 PUSH2 0x234 JUMP JUMPDEST SWAP1 POP DUP1 SWAP2 POP POP SWAP3 SWAP2 POP POP JUMP JUMPDEST PUSH1 0x0 DUP1 PUSH1 0x2 DUP4 PUSH2 0x101 SWAP2 SWAP1 PUSH2 0x3B6 JUMP JUMPDEST SWAP1 POP DUP1 SWAP2 POP POP SWAP2 SWAP1 POP JUMP JUMPDEST PUSH1 0x0 DUP1 PUSH1 0x2 DUP4 DUP6 PUSH2 0x11D SWAP2 SWAP1 PUSH2 0x234 JUMP JUMPDEST PUSH2 0x127 SWAP2 SWAP1 PUSH2 0x430 JUMP JUMPDEST SWAP1 POP DUP1 SWAP2 POP POP SWAP3 SWAP2 POP POP JUMP JUMPDEST PUSH1 0x0 DUP1 REVERT JUMPDEST PUSH1 0x0 DUP2 SWAP1 POP SWAP2 SWAP1 POP JUMP JUMPDEST PUSH2 0x14B DUP2 PUSH2 0x138 JUMP JUMPDEST DUP2 EQ PUSH2 0x156 JUMPI PUSH1 0x0 DUP1 REVERT JUMPDEST POP JUMP JUMPDEST PUSH1 0x0 DUP2 CALLDATALOAD SWAP1 POP PUSH2 0x168 DUP2 PUSH2 0x142 JUMP JUMPDEST SWAP3 SWAP2 POP POP JUMP JUMPDEST PUSH1 0x0 DUP1 PUSH1 0x40 DUP4 DUP6 SUB SLT ISZERO PUSH2 0x185 JUMPI PUSH2 0x184 PUSH2 0x133 JUMP JUMPDEST JUMPDEST PUSH1 0x0 PUSH2 0x193 DUP6 DUP3 DUP7 ADD PUSH2 0x159 JUMP JUMPDEST SWAP3 POP POP PUSH1 0x20 PUSH2 0x1A4 DUP6 DUP3 DUP7 ADD PUSH2 0x159 JUMP JUMPDEST SWAP2 POP POP SWAP3 POP SWAP3 SWAP1 POP JUMP JUMPDEST PUSH2 0x1B7 DUP2 PUSH2 0x138 JUMP JUMPDEST DUP3 MSTORE POP POP JUMP JUMPDEST PUSH1 0x0 PUSH1 0x20 DUP3 ADD SWAP1 POP PUSH2 0x1D2 PUSH1 0x0 DUP4 ADD DUP5 PUSH2 0x1AE JUMP JUMPDEST SWAP3 SWAP2 POP POP JUMP JUMPDEST PUSH1 0x0 PUSH1 0x20 DUP3 DUP5 SUB SLT ISZERO PUSH2 0x1EE JUMPI PUSH2 0x1ED PUSH2 0x133 JUMP JUMPDEST JUMPDEST PUSH1 0x0 PUSH2 0x1FC DUP5 DUP3 DUP6 ADD PUSH2 0x159 JUMP JUMPDEST SWAP2 POP POP SWAP3 SWAP2 POP POP JUMP JUMPDEST PUSH32 0x4E487B7100000000000000000000000000000000000000000000000000000000 PUSH1 0x0 MSTORE PUSH1 0x11 PUSH1 0x4 MSTORE PUSH1 0x24 PUSH1 0x0 REVERT JUMPDEST PUSH1 0x0 PUSH2 0x23F DUP3 PUSH2 0x138 JUMP JUMPDEST SWAP2 POP PUSH2 0x24A DUP4 PUSH2 0x138 JUMP JUMPDEST SWAP3 POP DUP3 DUP3 MUL PUSH2 0x258 DUP2 PUSH2 0x138 JUMP JUMPDEST SWAP2 POP DUP3 DUP3 DIV DUP5 EQ DUP4 ISZERO OR PUSH2 0x26F JUMPI PUSH2 0x26E PUSH2 0x205 JUMP JUMPDEST JUMPDEST POP SWAP3 SWAP2 POP POP JUMP JUMPDEST PUSH1 0x0 DUP2 PUSH1 0x1 SHR SWAP1 POP SWAP2 SWAP1 POP JUMP JUMPDEST PUSH1 0x0 DUP1 DUP3 SWAP2 POP DUP4 SWAP1 POP JUMPDEST PUSH1 0x1 DUP6 GT ISZERO PUSH2 0x2CD JUMPI DUP1 DUP7 DIV DUP2 GT ISZERO PUSH2 0x2A9 JUMPI PUSH2 0x2A8 PUSH2 0x205 JUMP JUMPDEST JUMPDEST PUSH1 0x1 DUP6 AND ISZERO PUSH2 0x2B8 JUMPI DUP1 DUP3 MUL SWAP2 POP JUMPDEST DUP1 DUP2 MUL SWAP1 POP PUSH2 0x2C6 DUP6 PUSH2 0x276 JUMP JUMPDEST SWAP5 POP PUSH2 0x28D JUMP JUMPDEST SWAP5 POP SWAP5 SWAP3 POP POP POP JUMP JUMPDEST PUSH1 0x0 DUP3 PUSH2 0x2E6 JUMPI PUSH1 0x1 SWAP1 POP PUSH2 0x3A2 JUMP JUMPDEST DUP2 PUSH2 0x2F4 JUMPI PUSH1 0x0 SWAP1 POP PUSH2 0x3A2 JUMP JUMPDEST DUP2 PUSH1 0x1 DUP2 EQ PUSH2 0x30A JUMPI PUSH1 0x2 DUP2 EQ PUSH2 0x314 JUMPI PUSH2 0x343 JUMP JUMPDEST PUSH1 0x1 SWAP2 POP POP PUSH2 0x3A2 JUMP JUMPDEST PUSH1 0xFF DUP5 GT ISZERO PUSH2 0x326 JUMPI PUSH2 0x325 PUSH2 0x205 JUMP JUMPDEST JUMPDEST DUP4 PUSH1 0x2 EXP SWAP2 POP DUP5 DUP3 GT ISZERO PUSH2 0x33D JUMPI PUSH2 0x33C PUSH2 0x205 JUMP JUMPDEST JUMPDEST POP PUSH2 0x3A2 JUMP JUMPDEST POP PUSH1 0x20 DUP4 LT PUSH2 0x133 DUP4 LT AND PUSH1 0x4E DUP5 LT PUSH1 0xB DUP5 LT AND OR ISZERO PUSH2 0x378 JUMPI DUP3 DUP3 EXP SWAP1 POP DUP4 DUP2 GT ISZERO PUSH2 0x373 JUMPI PUSH2 0x372 PUSH2 0x205 JUMP JUMPDEST JUMPDEST PUSH2 0x3A2 JUMP JUMPDEST PUSH2 0x385 DUP5 DUP5 DUP5 PUSH1 0x1 PUSH2 0x283 JUMP JUMPDEST SWAP3 POP SWAP1 POP DUP2 DUP5 DIV DUP2 GT ISZERO PUSH2 0x39C JUMPI PUSH2 0x39B PUSH2 0x205 JUMP JUMPDEST JUMPDEST DUP2 DUP2 MUL SWAP1 POP JUMPDEST SWAP4 SWAP3 POP POP POP JUMP JUMPDEST PUSH1 0x0 PUSH1 0xFF DUP3 AND SWAP1 POP SWAP2 SWAP1 POP JUMP JUMPDEST PUSH1 0x0 PUSH2 0x3C1 DUP3 PUSH2 0x138 JUMP JUMPDEST SWAP2 POP PUSH2 0x3CC DUP4 PUSH2 0x3A9 JUMP JUMPDEST SWAP3 POP PUSH2 0x3F9 PUSH32 0xFFFFFFFFFFFFFFFFFFFFFFFFFFFFFFFFFFFFFFFFFFFFFFFFFFFFFFFFFFFFFFFF DUP5 DUP5 PUSH2 0x2D6 JUMP JUMPDEST SWAP1 POP SWAP3 SWAP2 POP POP JUMP JUMPDEST PUSH32 0x4E487B7100000000000000000000000000000000000000000000000000000000 PUSH1 0x0 MSTORE PUSH1 0x12 PUSH1 0x4 MSTORE PUSH1 0x24 PUSH1 0x0 REVERT JUMPDEST PUSH1 0x0 PUSH2 0x43B DUP3 PUSH2 0x138 JUMP JUMPDEST SWAP2 POP PUSH2 0x446 DUP4 PUSH2 0x138 JUMP JUMPDEST SWAP3 POP DUP3 PUSH2 0x456 JUMPI PUSH2 0x455 PUSH2 0x401 JUMP JUMPDEST JUMPDEST DUP3 DUP3 DIV SWAP1 POP SWAP3 SWAP2 POP POP JUMP INVALID LOG2 PUSH5 0x6970667358 0x22 SLT KECCAK256 0xFB 0x27 0xFB BASEFEE CALL MULMOD 0x4C SWAP2 0xA6 SUB 0xF 0xA7 0x49 LOG3 0x2A SIGNEXTEND PUSH29 0x525C6EA232E1C231BF13B0955AAD664736F6C63430008140033000000 "
        },
        "methodIdentifiers": {
          "areaRectangle(uint256,uint256)": "1d3869d0",
          "areaSquare(uint256)": "4b4b932c",
          "areaTriangle(uint256,uint256)": "fd81dda8"
        }
      }
    }
  }
}